{
  "_format": "hh-sol-artifact-1",
  "contractName": "WavePortal",
  "sourceName": "contracts/WavePortal.sol",
  "abi": [
    {
      "inputs": [],
      "stateMutability": "payable",
      "type": "constructor"
    },
    {
      "anonymous": false,
      "inputs": [
        {
          "indexed": true,
          "internalType": "address",
          "name": "from",
          "type": "address"
        },
        {
          "indexed": false,
          "internalType": "uint256",
          "name": "timestamp",
          "type": "uint256"
        },
        {
          "indexed": false,
          "internalType": "string",
          "name": "message",
          "type": "string"
        }
      ],
      "name": "NewWave",
      "type": "event"
    },
    {
      "inputs": [],
      "name": "getAllWaves",
      "outputs": [
        {
          "components": [
            {
              "internalType": "address",
              "name": "waver",
              "type": "address"
            },
            {
              "internalType": "string",
              "name": "message",
              "type": "string"
            },
            {
              "internalType": "uint256",
              "name": "timestamp",
              "type": "uint256"
            }
          ],
          "internalType": "struct WavePortal.Wave[]",
          "name": "",
          "type": "tuple[]"
        }
      ],
      "stateMutability": "view",
      "type": "function"
    },
    {
      "inputs": [],
      "name": "getTotalWaves",
      "outputs": [
        {
          "internalType": "uint256",
          "name": "",
          "type": "uint256"
        }
      ],
      "stateMutability": "view",
      "type": "function"
    },
    {
      "inputs": [
        {
          "internalType": "address",
          "name": "",
          "type": "address"
        }
      ],
      "name": "lastWavedAt",
      "outputs": [
        {
          "internalType": "uint256",
          "name": "",
          "type": "uint256"
        }
      ],
      "stateMutability": "view",
      "type": "function"
    },
    {
      "inputs": [
        {
          "internalType": "string",
          "name": "_message",
          "type": "string"
        }
      ],
      "name": "wave",
      "outputs": [],
      "stateMutability": "nonpayable",
      "type": "function"
    }
  ],
  "bytecode": "0x60806040526200004f6040518060400160405280601581526020017f57617373612057617373612057617373616161617000000000000000000000008152506200007760201b620006481760201c565b606444426200005f9190620001c4565b6200006b919062000261565b60018190555062000308565b62000117816040516024016200008e919062000184565b6040516020818303038152906040527f41304fac000000000000000000000000000000000000000000000000000000007bffffffffffffffffffffffffffffffffffffffffffffffffffffffff19166020820180517bffffffffffffffffffffffffffffffffffffffffffffffffffffffff83818316178352505050506200011a60201b60201c565b50565b60008151905060006a636f6e736f6c652e6c6f679050602083016000808483855afa5050505050565b60006200015082620001a8565b6200015c8185620001b3565b93506200016e8185602086016200022b565b6200017981620002f7565b840191505092915050565b60006020820190508181036000830152620001a0818462000143565b905092915050565b600081519050919050565b600082825260208201905092915050565b6000620001d18262000221565b9150620001de8362000221565b9250827fffffffffffffffffffffffffffffffffffffffffffffffffffffffffffffffff0382111562000216576200021562000299565b5b828201905092915050565b6000819050919050565b60005b838110156200024b5780820151818401526020810190506200022e565b838111156200025b576000848401525b50505050565b60006200026e8262000221565b91506200027b8362000221565b9250826200028e576200028d620002c8565b5b828206905092915050565b7f4e487b7100000000000000000000000000000000000000000000000000000000600052601160045260246000fd5b7f4e487b7100000000000000000000000000000000000000000000000000000000600052601260045260246000fd5b6000601f19601f8301169050919050565b6111dd80620003186000396000f3fe608060405234801561001057600080fd5b506004361061004c5760003560e01c8063449d46c0146100515780639a2cdc081461006d578063a42a46631461008b578063bd43a908146100bb575b600080fd5b61006b60048036038101906100669190610a2a565b6100d9565b005b610075610494565b6040516100829190610e6f565b60405180910390f35b6100a560048036038101906100a09190610a01565b6104df565b6040516100b29190610e6f565b60405180910390f35b6100c36104f7565b6040516100d09190610d2d565b60405180910390f35b42610384600360003373ffffffffffffffffffffffffffffffffffffffff1673ffffffffffffffffffffffffffffffffffffffff168152602001908152602001600020546101279190610f8c565b10610167576040517f08c379a000000000000000000000000000000000000000000000000000000000815260040161015e90610e4f565b60405180910390fd5b42600360003373ffffffffffffffffffffffffffffffffffffffff1673ffffffffffffffffffffffffffffffffffffffff1681526020019081526020016000208190555060016000808282546101bd9190610f8c565b92505081905550600260405180606001604052803373ffffffffffffffffffffffffffffffffffffffff16815260200183815260200142815250908060018154018082558091505060019003906000526020600020906003020160009091909190915060008201518160000160006101000a81548173ffffffffffffffffffffffffffffffffffffffff021916908373ffffffffffffffffffffffffffffffffffffffff16021790555060208201518160010190805190602001906102839291906108e1565b506040820151816002015550506102d06040518060400160405280601f81526020017f25732068617320776176656420617420796120617420626c6f636b202325730081525033436106e1565b3373ffffffffffffffffffffffffffffffffffffffff167f5f7e16dc676677766a70e9c5628aa6c54ddb8b6e5188e2ae1e1f17f1ffbea7164283604051610318929190610e8a565b60405180910390a2606460015442446103319190610f8c565b61033b9190610f8c565b6103459190611092565b600181905550601960015411610491576103946040518060400160405280600781526020017f257320776f6e210000000000000000000000000000000000000000000000000081525033610780565b6000655af3107a40009050478111156103e2576040517f08c379a00000000000000000000000000000000000000000000000000000000081526004016103d990610e0f565b60405180910390fd5b60003373ffffffffffffffffffffffffffffffffffffffff168260405161040890610d18565b60006040518083038185875af1925050503d8060008114610445576040519150601f19603f3d011682016040523d82523d6000602084013e61044a565b606091505b505090508061048e576040517f08c379a000000000000000000000000000000000000000000000000000000000815260040161048590610e2f565b60405180910390fd5b50505b50565b60006104d76040518060400160405280602081526020017f576f686f6f2120576527766520636f6c6c65637465642025732077617665732181525060005461081c565b600054905090565b60036020528060005260406000206000915090505481565b60606002805480602002602001604051908101604052809291908181526020016000905b8282101561063f57838290600052602060002090600302016040518060600160405290816000820160009054906101000a900473ffffffffffffffffffffffffffffffffffffffff1673ffffffffffffffffffffffffffffffffffffffff1673ffffffffffffffffffffffffffffffffffffffff1681526020016001820180546105a490611060565b80601f01602080910402602001604051908101604052809291908181526020018280546105d090611060565b801561061d5780601f106105f25761010080835404028352916020019161061d565b820191906000526020600020905b81548152906001019060200180831161060057829003601f168201915b505050505081526020016002820154815250508152602001906001019061051b565b50505050905090565b6106de8160405160240161065c9190610d4f565b6040516020818303038152906040527f41304fac000000000000000000000000000000000000000000000000000000007bffffffffffffffffffffffffffffffffffffffffffffffffffffffff19166020820180517bffffffffffffffffffffffffffffffffffffffffffffffffffffffff83818316178352505050506108b8565b50565b61077b8383836040516024016106f993929190610da1565b6040516020818303038152906040527f07c81217000000000000000000000000000000000000000000000000000000007bffffffffffffffffffffffffffffffffffffffffffffffffffffffff19166020820180517bffffffffffffffffffffffffffffffffffffffffffffffffffffffff83818316178352505050506108b8565b505050565b6108188282604051602401610796929190610d71565b6040516020818303038152906040527f319af333000000000000000000000000000000000000000000000000000000007bffffffffffffffffffffffffffffffffffffffffffffffffffffffff19166020820180517bffffffffffffffffffffffffffffffffffffffffffffffffffffffff83818316178352505050506108b8565b5050565b6108b48282604051602401610832929190610ddf565b6040516020818303038152906040527f9710a9d0000000000000000000000000000000000000000000000000000000007bffffffffffffffffffffffffffffffffffffffffffffffffffffffff19166020820180517bffffffffffffffffffffffffffffffffffffffffffffffffffffffff83818316178352505050506108b8565b5050565b60008151905060006a636f6e736f6c652e6c6f679050602083016000808483855afa5050505050565b8280546108ed90611060565b90600052602060002090601f01602090048101928261090f5760008555610956565b82601f1061092857805160ff1916838001178555610956565b82800160010185558215610956579182015b8281111561095557825182559160200191906001019061093a565b5b5090506109639190610967565b5090565b5b80821115610980576000816000905550600101610968565b5090565b600061099761099284610eeb565b610eba565b9050828152602081018484840111156109af57600080fd5b6109ba84828561101e565b509392505050565b6000813590506109d181611190565b92915050565b600082601f8301126109e857600080fd5b81356109f8848260208601610984565b91505092915050565b600060208284031215610a1357600080fd5b6000610a21848285016109c2565b91505092915050565b600060208284031215610a3c57600080fd5b600082013567ffffffffffffffff811115610a5657600080fd5b610a62848285016109d7565b91505092915050565b6000610a778383610caa565b905092915050565b610a8881610fe2565b82525050565b610a9781610fe2565b82525050565b6000610aa882610f2b565b610ab28185610f4e565b935083602082028501610ac485610f1b565b8060005b85811015610b005784840389528151610ae18582610a6b565b9450610aec83610f41565b925060208a01995050600181019050610ac8565b50829750879550505050505092915050565b6000610b1d82610f36565b610b278185610f6a565b9350610b3781856020860161102d565b610b408161117f565b840191505092915050565b6000610b5682610f36565b610b608185610f7b565b9350610b7081856020860161102d565b610b798161117f565b840191505092915050565b6000610b91603483610f7b565b91507f547279696e6720746f207769746864726177206d6f7265206d6f6e657920746860008301527f616e2074686520636f6e7472616374206861732e0000000000000000000000006020830152604082019050919050565b6000610bf7602783610f7b565b91507f4661696c656420746f207769746864726177206d6f6e65792066726f6d20636f60008301527f6e74726163742e000000000000000000000000000000000000000000000000006020830152604082019050919050565b6000610c5d600083610f5f565b9150600082019050919050565b6000610c77600883610f7b565b91507f576169742031356d0000000000000000000000000000000000000000000000006000830152602082019050919050565b6000606083016000830151610cc26000860182610a7f565b5060208301518482036020860152610cda8282610b12565b9150506040830151610cef6040860182610cfa565b508091505092915050565b610d0381611014565b82525050565b610d1281611014565b82525050565b6000610d2382610c50565b9150819050919050565b60006020820190508181036000830152610d478184610a9d565b905092915050565b60006020820190508181036000830152610d698184610b4b565b905092915050565b60006040820190508181036000830152610d8b8185610b4b565b9050610d9a6020830184610a8e565b9392505050565b60006060820190508181036000830152610dbb8186610b4b565b9050610dca6020830185610a8e565b610dd76040830184610d09565b949350505050565b60006040820190508181036000830152610df98185610b4b565b9050610e086020830184610d09565b9392505050565b60006020820190508181036000830152610e2881610b84565b9050919050565b60006020820190508181036000830152610e4881610bea565b9050919050565b60006020820190508181036000830152610e6881610c6a565b9050919050565b6000602082019050610e846000830184610d09565b92915050565b6000604082019050610e9f6000830185610d09565b8181036020830152610eb18184610b4b565b90509392505050565b6000604051905081810181811067ffffffffffffffff82111715610ee157610ee0611150565b5b8060405250919050565b600067ffffffffffffffff821115610f0657610f05611150565b5b601f19601f8301169050602081019050919050565b6000819050602082019050919050565b600081519050919050565b600081519050919050565b6000602082019050919050565b600082825260208201905092915050565b600081905092915050565b600082825260208201905092915050565b600082825260208201905092915050565b6000610f9782611014565b9150610fa283611014565b9250827fffffffffffffffffffffffffffffffffffffffffffffffffffffffffffffffff03821115610fd757610fd66110c3565b5b828201905092915050565b6000610fed82610ff4565b9050919050565b600073ffffffffffffffffffffffffffffffffffffffff82169050919050565b6000819050919050565b82818337600083830152505050565b60005b8381101561104b578082015181840152602081019050611030565b8381111561105a576000848401525b50505050565b6000600282049050600182168061107857607f821691505b6020821081141561108c5761108b611121565b5b50919050565b600061109d82611014565b91506110a883611014565b9250826110b8576110b76110f2565b5b828206905092915050565b7f4e487b7100000000000000000000000000000000000000000000000000000000600052601160045260246000fd5b7f4e487b7100000000000000000000000000000000000000000000000000000000600052601260045260246000fd5b7f4e487b7100000000000000000000000000000000000000000000000000000000600052602260045260246000fd5b7f4e487b7100000000000000000000000000000000000000000000000000000000600052604160045260246000fd5b6000601f19601f8301169050919050565b61119981610fe2565b81146111a457600080fd5b5056fea2646970667358221220ff4f5b502d6558d72bb27a8335ed53ceffb7e8c92efc7932440698254bc88afb64736f6c63430008000033",
  "linkReferences": {},
  "deployedLinkReferences": {}
}